S01F00006F62737461636C652D61766F6964696E672D726F626F742E73726563E7
S11300000C942A000C9434000C9434000C943400A6
S11300100C9434000C9434000C9434000C9434008C
S11300200C9434000C9434000C9434000C9434007C
S11300300C9434000C9434000C9434000C9434006C
S11300400C9434000C9434000C9434000C9434005C
S11300500C94340011241FBECFE5D8E0DEBFCDBF21
S11300600E9469000C943B060C94000029B330E014
S113007002C0359527958A95E2F781E090E020FF4C
S113008002C080E090E0089582B3866082BB9098BD
S11300909398089582B3896082BB91989298089549
S11300A0929A9098919893980895919A909892988A
S11300B093980895929A909A919893980895919A02
S11300C0939A929890980895DA98DB98DC98DD9842
S11300D008951ABA8FEF81BB80E090E00E94360049
S11300E0892B69F181E090E00E943600892B39F177
S11300F082E090E00E943600892B09F183E090E0D1
S11301000E943600892BD9F084E090E00E943600EA
S1130110892BA9F085E090E00E943600892B79F0C4
S113012086E090E00E943600892B49F087E090E059
S11301300E943600892B19F00E946400CDCF80E024
S113014090E00E943600892B69F581E090E00E94DE
S11301503600892B39F582E090E00E943600892B25
S113016009F583E090E00E943600892BD9F484E0FD
S113017090E00E943600892BA9F485E090E00E946B
S11301803600892B79F486E090E00E943600892BB2
S113019049F487E090E00E943600892B19F40E940C
S11301A04A009ACF80E090E00E943600892B69F1E2
S11301B081E090E00E943600892B39F182E090E0E2
S11301C00E943600892B09F183E090E00E943600FA
S11301D0892BD9F084E090E00E943600892BA9F4A1
S11301E085E090E00E943600892B79F486E090E067
S11301F00E943600892B49F487E090E00E94360083
S1130200892B19F40E945F0067CF80E090E00E9480
S11302103600892B69F581E090E00E943600892B35
S113022039F182E090E00E943600892B09F183E0E5
S113023090E00E943600892BD9F084E090E00E947F
S11302403600892BA9F085E090E00E943600892BC6
S113025079F486E090E00E943600892B49F487E027
S113026090E00E943600892B19F40E94550034CF87
S113027080E090E00E943600892B69F581E090E0EF
S11302800E943600892B39F582E090E00E94360006
S1130290892B09F183E090E00E943600892BD9F084
S11302A084E090E00E943600892BA9F085E090E07C
S11302B00E943600892B79F086E090E00E94360097
S11302C0892B49F487E090E00E943600892B19F4C9
S11302D00E94440001CF80E090E00E943600892B08
S11302E069F581E090E00E943600892B39F582E0BF
S11302F090E00E943600892B09F583E090E00E948B
S11303003600892BD9F084E090E00E943600892BD6
S1130310A9F085E090E00E943600892B79F086E010
S113032090E00E943600892B49F087E090E00E941B
S11303303600892B19F40E945000CECE80E090E064
S11303400E943600892B69F581E090E00E94360016
S1130350892B39F582E090E00E943600892B09F55B
S113036083E090E00E943600892BD9F484E090E089
S11303700E943600892BA9F085E090E00E943600A7
S1130380892B79F086E090E00E943600892B49F0B1
S113039087E090E00E943600892B19F00E945F00EC
S11303A09BCE80E090E00E943600892B69F181E0C9
S11303B090E00E943600892B39F182E090E00E949F
S11303C03600892B09F183E090E00E943600892BE6
S11303D0D9F484E090E00E943600892BA9F485E0EA
S11303E090E00E943600892B79F486E090E00E9428
S11303F03600892B49F487E090E00E943600892B6F
S113040019F40E945F0068CE80E090E00E943600FC
S1130410892B69F581E090E00E943600892B39F13F
S113042082E090E00E943600892B09F183E090E09D
S11304300E943600892BD9F084E090E00E943600B7
S1130440892BA9F485E090E00E943600892B79F489
S113045086E090E00E943600892B49F487E090E022
S11304600E943600892B19F40E94550035CE80E095
S113047090E00E943600892B69F581E090E00E94AB
S11304803600892B39F582E090E00E943600892BF2
S113049009F183E090E00E943600892BD9F084E0D2
S11304A090E00E943600892BA9F085E090E00E943C
S11304B03600892B79F486E090E00E943600892B7F
S11304C049F487E090E00E943600892B19F40E94D9
S11304D0550002CE80E090E00E943600892B69F539
S11304E081E090E00E943600892B39F582E090E0AB
S11304F00E943600892B09F583E090E00E943600C3
S1130500892BD9F084E090E00E943600892BA9F071
S113051085E090E00E943600892B79F086E090E037
S11305200E943600892B49F487E090E00E9436004F
S1130530892B19F40E945000CFCD80E090E00E94F6
S11305403600892B69F581E090E00E943600892B02
S113055039F582E090E00E943600892B09F583E0AA
S113056090E00E943600892BD9F484E090E00E9448
S11305703600892BA9F085E090E00E943600892B93
S113058079F086E090E00E943600892B49F087E0FC
S113059090E00E943600892B19F40E9450009CCDF3
S11305A080E090E00E943600892B69F581E090E0BC
S11305B00E943600892B39F582E090E00E943600D3
S11305C0892B09F583E090E00E943600892BD9F449
S11305D084E090E00E943600892BA9F485E090E045
S11305E00E943600892B79F086E090E00E94360064
S11305F0892B49F087E090E00E943600892B19F09E
S11306000E945A0069CD80E090E00E943600892B58
S113061069F181E090E00E943600892B39F182E093
S113062090E00E943600892B09F583E090E00E9457
S11306303600892BD9F484E090E00E943600892B9F
S1130640A9F485E090E00E943600892B79F486E0D5
S113065090E00E943600892B49F487E090E00E94E4
S11306603600892B19F40E945F0036CD80E090E0BB
S11306700E943600892B69F581E090E00E943600E3
S1130680892B39F182E090E00E943600892B09F130
S113069083E090E00E943600892BD9F484E090E056
S11306A00E943600892BA9F485E090E00E94360070
S11306B0892B79F486E090E00E943600892B49F476
S11306C087E090E00E943600892B19F40E945500BF
S11306D003CD80E090E00E943600892B69F581E02B
S11306E090E00E943600892B39F582E090E00E9468
S11306F03600892B09F183E090E00E943600892BB3
S1130700D9F084E090E00E943600892BA9F485E0BA
S113071090E00E943600892B79F486E090E00E94F4
S11307203600892B49F487E090E00E943600892B3B
S113073019F40E945500D0CC80E090E00E9436006D
S1130740892B69F581E090E00E943600892B39F508
S113075082E090E00E943600892B09F583E090E066
S11307600E943600892BD9F084E090E00E94360084
S1130770892BA9F085E090E00E943600892B79F45A
S113078086E090E00E943600892B49F487E090E0EF
S11307900E943600892B19F40E9444009DCC80E00D
S11307A090E00E943600892B69F581E090E00E9478
S11307B03600892B39F582E090E00E943600892BBF
S11307C009F583E090E00E943600892BD9F484E097
S11307D090E00E943600892BA9F085E090E00E9409
S11307E03600892B79F086E090E00E943600892B50
S11307F049F487E090E00E943600892B19F40E94A6
S113080050006ACC80E090E00E943600892B69F5A4
S113081081E090E00E943600892B39F582E090E077
S11308200E943600892B09F583E090E00E9436008F
S1130830892BD9F484E090E00E943600892BA9F436
S113084085E090E00E943600892B79F086E090E004
S11308500E943600892B49F087E090E00E94360020
S1130860892B19F40E94500037CC80E090E00E945C
S11308703600892B69F581E090E00E943600892BCF
S113088039F582E090E00E943600892B09F583E077
S113089090E00E943600892BD9F484E090E00E9415
S11308A03600892BA9F485E090E00E943600892B5C
S11308B079F486E090E00E943600892B49F087E0C5
S11308C090E00E943600892B19F00E945A0004CC53
S11308D080E090E00E943600892B69F181E090E08D
S11308E00E943600892B39F582E090E00E943600A0
S11308F0892B09F583E090E00E943600892BD9F416
S113090084E090E00E943600892BA9F485E090E011
S11309100E943600892B79F486E090E00E9436002C
S1130920892B49F487E090E00E943600892B19F462
S11309300E945F00D1CB80E090E00E943600892BBA
S113094069F581E090E00E943600892B39F182E05C
S113095090E00E943600892B09F583E090E00E9424
S11309603600892BD9F484E090E00E943600892B6C
S1130970A9F485E090E00E943600892B79F486E0A2
S113098090E00E943600892B49F487E090E00E94B1
S11309903600892B19F40E9455009ECB80E090E02C
S11309A00E943600892B69F581E090E00E943600B0
S11309B0892B39F582E090E00E943600892B09F1F9
S11309C083E090E00E943600892BD9F484E090E023
S11309D00E943600892BA9F485E090E00E9436003D
S11309E0892B79F486E090E00E943600892B49F443
S11309F087E090E00E943600892B19F40E9455008C
S1130A006BCB80E090E00E943600892B69F581E091
S1130A1090E00E943600892B39F582E090E00E9434
S1130A203600892B09F183E090E00E943600892B7F
S1130A30D9F484E090E00E943600892BA9F485E083
S1130A4090E00E943600892B79F486E090E00E94C1
S1130A503600892B49F487E090E00E943600892B08
S1130A6019F40E94550038CB80E090E00E943600D3
S1130A70892B69F581E090E00E943600892B39F5D5
S1130A8082E090E00E943600892B09F583E090E033
S1130A900E943600892BD9F084E090E00E94360051
S1130AA0892BA9F485E090E00E943600892B79F423
S1130AB086E090E00E943600892B49F487E090E0BC
S1130AC00E943600892B19F40E94550005CB80E062
S1130AD090E00E943600892B69F581E090E00E9445
S1130AE03600892B39F582E090E00E943600892B8C
S1130AF009F583E090E00E943600892BD9F484E064
S1130B0090E00E943600892BA9F085E090E00E94D5
S1130B103600892B79F486E090E00E943600892B18
S1130B2049F487E090E00E943600892B19F40E9472
S1130B305000D2CA80E090E00E943600892B69F50B
S1130B4081E090E00E943600892B39F582E090E044
S1130B500E943600892B09F583E090E00E9436005C
S1130B60892BD9F484E090E00E943600892BA9F403
S1130B7085E090E00E943600892B79F086E090E0D1
S1130B800E943600892B49F487E090E00E943600E9
S1130B90892B19F40E9450009FCA80E090E00E94C3
S1130BA03600892B69F581E090E00E943600892B9C
S1130BB039F582E090E00E943600892B09F583E044
S1130BC090E00E943600892BD9F484E090E00E94E2
S1130BD03600892BA9F485E090E00E943600892B29
S1130BE079F486E090E00E943600892B49F087E092
S1130BF090E00E943600892B19F40E9450006CCAC0
S1130C0080E090E00E943600892B09F065CA81E0FB
S1130C1090E00E943600892B09F05ECA82E090E0E1
S1130C200E943600892B09F057CA83E090E00E94A5
S1130C303600892B09F050CA84E090E00E94360007
S1130C40892B09F049CA85E090E00E943600892B7F
S1130C5009F042CA86E090E00E943600892B09F030
S1130C603BCA87E090E00E943600892B09F434CA1D
S10D0C700E945A0031CAF894FFCF25
S9030000FC
