S01F00006F62737461636C652D61766F6964696E672D726F626F742E73726563E7
S11300000C942A000C9434000C9434000C943400A6
S11300100C9434000C9434000C9434000C9434008C
S11300200C9434000C9434000C9434000C9434007C
S11300300C9434000C9434000C9434000C9434006C
S11300400C9434000C9434000C9434000C9434005C
S11300500C94340011241FBECFE5D8E0DEBFCDBF21
S11300600E94A6000C947A060C94000029B330E098
S113007002C0359527958A95E2F781E090E020FF4C
S113008002C080E090E0089583B7886483BF83B79B
S1130090806383BF83B7826083BF83B78B7F83BF53
S11300A088EE93E097BD86BD08958BB384618BBBC6
S11300B0DB98DD9888EE93E09BBD8ABD99BD88BD31
S11300C008958BB388628BBBDA98DC9888EE93E052
S11300D09BBD8ABD99BD88BD08958BB384618BBBDC
S11300E0DB98DD9888EE93E09BBD8ABD82EC91E0BD
S11300F099BD88BD08958BB384618BBBDB98DD9873
S113010082EC91E09BBD8ABD88EE93E099BD88BDE9
S113011008958BB384628BBBDB98DC988EEE92E0FF
S11301209BBD8ABD99BD88BD08958BB388618BBB87
S1130130DA98DD988EEE92E09BBD8ABD99BD88BDAC
S11301400895DA98DB98DC98DD9808951ABA8FEF51
S113015081BB0E94440080E090E00E943600892B1D
S113016069F181E090E00E943600892B39F182E048
S113017090E00E943600892B09F183E090E00E9410
S11301803600892BD9F084E090E00E943600892B58
S1130190A9F085E090E00E943600892B79F086E092
S11301A090E00E943600892B49F087E090E00E949D
S11301B03600892B19F00E94A100CDCF80E090E099
S11301C00E943600892B69F581E090E00E94360098
S11301D0892B39F582E090E00E943600892B09F5DD
S11301E083E090E00E943600892BD9F484E090E00B
S11301F00E943600892BA9F485E090E00E94360025
S1130200892B79F486E090E00E943600892B49F42A
S113021087E090E00E943600892B19F40E94610067
S11302209ACF80E090E00E943600892B69F181E04A
S113023090E00E943600892B39F182E090E00E9420
S11302403600892B09F183E090E00E943600892B67
S1130250D9F084E090E00E943600892BA9F485E06F
S113026090E00E943600892B79F486E090E00E94A9
S11302703600892B49F487E090E00E943600892BF0
S113028019F40E94950067CF80E090E00E94360048
S1130290892B69F581E090E00E943600892B39F1C1
S11302A082E090E00E943600892B09F183E090E01F
S11302B00E943600892BD9F084E090E00E94360039
S11302C0892BA9F085E090E00E943600892B79F40F
S11302D086E090E00E943600892B49F487E090E0A4
S11302E00E943600892B19F40E947B0034CF80E0F1
S11302F090E00E943600892B69F581E090E00E942D
S11303003600892B39F582E090E00E943600892B73
S113031009F183E090E00E943600892BD9F084E053
S113032090E00E943600892BA9F085E090E00E94BD
S11303303600892B79F086E090E00E943600892B04
S113034049F487E090E00E943600892B19F40E945A
S1130350550001CF80E090E00E943600892B69F5BA
S113036081E090E00E943600892B39F582E090E02C
S11303700E943600892B09F583E090E00E94360044
S1130380892BD9F084E090E00E943600892BA9F0F3
S113039085E090E00E943600892B79F086E090E0B9
S11303A00E943600892B49F087E090E00E943600D5
S11303B0892B19F40E946D00CECE80E090E00E945B
S11303C03600892B69F581E090E00E943600892B84
S11303D039F582E090E00E943600892B09F583E02C
S11303E090E00E943600892BD9F484E090E00E94CA
S11303F03600892BA9F085E090E00E943600892B15
S113040079F086E090E00E943600892B49F087E07D
S113041090E00E943600892B19F00E9495009BCE33
S113042080E090E00E943600892B69F181E090E041
S11304300E943600892B39F182E090E00E94360058
S1130440892B09F183E090E00E943600892BD9F4CE
S113045084E090E00E943600892BA9F485E090E0C6
S11304600E943600892B79F486E090E00E943600E1
S1130470892B49F487E090E00E943600892B19F417
S11304800E94950068CE80E090E00E943600892B9F
S113049069F581E090E00E943600892B39F182E011
S11304A090E00E943600892B09F183E090E00E94DD
S11304B03600892BD9F084E090E00E943600892B25
S11304C0A9F485E090E00E943600892B79F486E057
S11304D090E00E943600892B49F487E090E00E9466
S11304E03600892B19F40E947B0035CE80E090E021
S11304F00E943600892B69F581E090E00E94360065
S1130500892B39F582E090E00E943600892B09F1AD
S113051083E090E00E943600892BD9F084E090E0DB
S11305200E943600892BA9F085E090E00E943600F5
S1130530892B79F486E090E00E943600892B49F4F7
S113054087E090E00E943600892B19F40E947B001A
S113055002CE80E090E00E943600892B69F581E0AC
S113056090E00E943600892B39F582E090E00E94E9
S11305703600892B09F583E090E00E943600892B30
S1130580D9F084E090E00E943600892BA9F085E040
S113059090E00E943600892B79F086E090E00E947A
S11305A03600892B49F487E090E00E943600892BBD
S11305B019F40E946D00CFCD80E090E00E943600D7
S11305C0892B69F581E090E00E943600892B39F58A
S11305D082E090E00E943600892B09F583E090E0E8
S11305E00E943600892BD9F484E090E00E94360002
S11305F0892BA9F085E090E00E943600892B79F0E0
S113060086E090E00E943600892B49F087E090E074
S11306100E943600892B19F40E946D009CCD80E065
S113062090E00E943600892B69F581E090E00E94F9
S11306303600892B39F582E090E00E943600892B40
S113064009F583E090E00E943600892BD9F484E018
S113065090E00E943600892BA9F485E090E00E9486
S11306603600892B79F086E090E00E943600892BD1
S113067049F087E090E00E943600892B19F00E942F
S1130680890069CD80E090E00E943600892B69F1F1
S113069081E090E00E943600892B39F182E090E0FD
S11306A00E943600892B09F583E090E00E94360011
S11306B0892BD9F484E090E00E943600892BA9F4B8
S11306C085E090E00E943600892B79F486E090E082
S11306D00E943600892B49F487E090E00E9436009E
S11306E0892B19F40E94950036CD80E090E00E9499
S11306F03600892B69F581E090E00E943600892B51
S113070039F182E090E00E943600892B09F183E000
S113071090E00E943600892BD9F484E090E00E9496
S11307203600892BA9F485E090E00E943600892BDD
S113073079F486E090E00E943600892B49F487E042
S113074090E00E943600892B19F40E947B0003CDAF
S113075080E090E00E943600892B69F581E090E00A
S11307600E943600892B39F582E090E00E94360021
S1130770892B09F183E090E00E943600892BD9F09F
S113078084E090E00E943600892BA9F485E090E093
S11307900E943600892B79F486E090E00E943600AE
S11307A0892B49F487E090E00E943600892B19F4E4
S11307B00E947B00D0CC80E090E00E943600892B20
S11307C069F581E090E00E943600892B39F582E0DA
S11307D090E00E943600892B09F583E090E00E94A6
S11307E03600892BD9F084E090E00E943600892BF2
S11307F0A9F085E090E00E943600892B79F486E028
S113080090E00E943600892B49F487E090E00E9432
S11308103600892B19F40E9455009DCC80E090E0AD
S11308200E943600892B69F581E090E00E94360031
S1130830892B39F582E090E00E943600892B09F576
S113084083E090E00E943600892BD9F484E090E0A4
S11308500E943600892BA9F085E090E00E943600C2
S1130860892B79F086E090E00E943600892B49F4C8
S113087087E090E00E943600892B19F40E946D00F5
S11308806ACC80E090E00E943600892B69F581E013
S113089090E00E943600892B39F582E090E00E94B6
S11308A03600892B09F583E090E00E943600892BFD
S11308B0D9F484E090E00E943600892BA9F485E005
S11308C090E00E943600892B79F086E090E00E9447
S11308D03600892B49F087E090E00E943600892B8E
S11308E019F40E946D0037CC80E090E00E9436003D
S11308F0892B69F581E090E00E943600892B39F557
S113090082E090E00E943600892B09F583E090E0B4
S11309100E943600892BD9F484E090E00E943600CE
S1130920892BA9F485E090E00E943600892B79F4A4
S113093086E090E00E943600892B49F087E090E041
S11309400E943600892B19F00E94890004CC80E0B3
S113095090E00E943600892B69F181E090E00E94CA
S11309603600892B39F582E090E00E943600892B0D
S113097009F583E090E00E943600892BD9F484E0E5
S113098090E00E943600892BA9F485E090E00E9453
S11309903600892B79F486E090E00E943600892B9A
S11309A049F487E090E00E943600892B19F40E94F4
S11309B09500D1CB80E090E00E943600892B69F548
S11309C081E090E00E943600892B39F182E090E0CA
S11309D00E943600892B09F583E090E00E943600DE
S11309E0892BD9F484E090E00E943600892BA9F485
S11309F085E090E00E943600892B79F486E090E04F
S1130A000E943600892B49F487E090E00E9436006A
S1130A10892B19F40E947B009ECB80E090E00E9419
S1130A203600892B69F581E090E00E943600892B1D
S1130A3039F582E090E00E943600892B09F183E0C9
S1130A4090E00E943600892BD9F484E090E00E9463
S1130A503600892BA9F485E090E00E943600892BAA
S1130A6079F486E090E00E943600892B49F487E00F
S1130A7090E00E943600892B19F40E947B006BCB16
S1130A8080E090E00E943600892B69F581E090E0D7
S1130A900E943600892B39F582E090E00E943600EE
S1130AA0892B09F183E090E00E943600892BD9F468
S1130AB084E090E00E943600892BA9F485E090E060
S1130AC00E943600892B79F486E090E00E9436007B
S1130AD0892B49F487E090E00E943600892B19F4B1
S1130AE00E947B0038CB80E090E00E943600892B86
S1130AF069F581E090E00E943600892B39F582E0A7
S1130B0090E00E943600892B09F583E090E00E9472
S1130B103600892BD9F084E090E00E943600892BBE
S1130B20A9F485E090E00E943600892B79F486E0F0
S1130B3090E00E943600892B49F487E090E00E94FF
S1130B403600892B19F40E947B0005CB80E090E0ED
S1130B500E943600892B69F581E090E00E943600FE
S1130B60892B39F582E090E00E943600892B09F543
S1130B7083E090E00E943600892BD9F484E090E071
S1130B800E943600892BA9F085E090E00E9436008F
S1130B90892B79F486E090E00E943600892B49F491
S1130BA087E090E00E943600892B19F40E946D00C2
S1130BB0D2CA80E090E00E943600892B69F581E07A
S1130BC090E00E943600892B39F582E090E00E9483
S1130BD03600892B09F583E090E00E943600892BCA
S1130BE0D9F484E090E00E943600892BA9F485E0D2
S1130BF090E00E943600892B79F086E090E00E9414
S1130C003600892B49F487E090E00E943600892B56
S1130C1019F40E946D009FCA80E090E00E943600A3
S1130C20892B69F581E090E00E943600892B39F523
S1130C3082E090E00E943600892B09F583E090E081
S1130C400E943600892BD9F484E090E00E9436009B
S1130C50892BA9F485E090E00E943600892B79F471
S1130C6086E090E00E943600892B49F087E090E00E
S1130C700E943600892B19F40E946D006CCA80E032
S1130C8090E00E943600892B09F065CA81E090E06B
S1130C900E943600892B09F05ECA82E090E00E942F
S1130CA03600892B09F057CA83E090E00E94360091
S1130CB0892B09F050CA84E090E00E943600892B09
S1130CC009F049CA85E090E00E943600892B09F0BA
S1130CD042CA86E090E00E943600892B09F03BCAA4
S1130CE087E090E00E943600892B09F434CA0E9400
S10B0CF0890031CAF894FFCF1A
S9030000FC
